:100000000C9457010C947F010C947F010C947F0198
:100010000C947F010C947F010C947F010C947F0160
:100020000C947F010C947F010C9453050C94C5052E
:100030000C947F010C947F010C947F010C947F0140
:100040000C947F010C947F010C947F010C947F0130
:100050000C947F010C947F010C947F010C94240973
:100060000C947F010C947F010C947F010C947F0110
:100070000C947F010C947F010C947F010C947F0100
:100080000C947F010C947F010C947F010C947F01F0
:100090000C947F010C947F010C947F010C947F01E0
:1000A0000C947F010C946E090C947F01FA02FD02FE
:1000B000EC02F002F6021E031E031E0301030503F9
:1000C00009030F0313031E0319030000000025009A
:1000D00028002B002E003100000000002400270023
:1000E0002A002D0030000404040404030405020265
:1000F00002020403020202020606060606060404C1
:100100000202020404040802011040804010204052
:1001100080408008020401804020100201108010FD
:100120002040402000000000000000002A2B280092
:1001300000000000000000000000000000000000BF
:10014000000000002C9EB4A0A1A2A434A6A7A5AED6
:10015000362D3738271E1F20212223242526B3338E
:10016000B62EB7B89F8485868788898A8B8C8D8EBA
:100170008F909192939495969798999A9B9C9D2F86
:100180003130A3AD350405060708090A0B0C0D0E26
:100190000F101112131415161718191A1B1C1DAF66
:1001A000B1B0B500000000002300260029002C009B
:1001B0002F000000000200090F0000030401000CE2
:1001C000000000000000000000000000000000002F
:1001D00000080B00020202010009040000010202F3
:1001E0000000052400100105240101010424020679
:1001F00005240600010705810310004009040100E1
:10020000020A000000070502024000000705830201
:100210004000000403090412010002EF0201404102
:1002200023368000010102030141726475696E6F1B
:10023000204C4C430041726475696E6F204C656FB1
:100240006E6172646F0005010902A1010901A1003C
:10025000850105091901290315002501950375017B
:1002600081029501750581030501093009310938BD
:100270001581257F750895038106C0C00501090613
:10028000A1018502050719E029E71500250175017F
:10029000950881029501750881039506750815007A
:1002A00025650507190029658100C000661811241D
:1002B0001FBECFEFDAE0DEBFCDBF23E0ACE5B2E09A
:1002C00001C01D92A83FB207E1F712E0A0E0B1E043
:1002D000E2E5FCE302C005900D92AC35B107D9F719
:1002E00011E0C7E5D1E004C02197FE010E94DE1BAA
:1002F000C635D107C9F70E94020D0C94271E0C9435
:10030000000040919302509194022091910230910B
:10031000920242175307B4F49091E8009570E1F30C
:100320009091E80092FD19C08093F10080919302B2
:100330009091940201968F739927892B19F48EEF6F
:100340008093E8008091930290919402019690939B
:1003500094028093930281E0089580E00895CF9203
:10036000DF92EF92FF920F931F93CF93DF931F9231
:10037000CDB7DEB7182F062FE42E862F880F8E5F9D
:1003800099830E94810183E00E948101F12EC12E98
:100390009981D92E8C2D8F19801798F4F601E7FEDC
:1003A00002C0849101C080810E948101182F80E0E9
:1003B0000E9481018123FFEFCF1ADF0A8111EACF6A
:1003C00001C081E00F90DF91CF911F910F91FF90BD
:1003D000EF90DF90CF900895DF92EF92FF920F930E
:1003E0001F93CF93DF93D82E8A017B01E40EF51E75
:1003F000EB01CE15DF0571F0D7FE03C0FE0184913D
:1004000001C088810E94810121968111F2CF8FEF76
:100410009FEF01C0C801DF91CF911F910F91FF9015
:10042000EF90DF9008952FB7F89487708093E900DC
:100430009091E800892F807295FF04C09091F2009E
:1004400080E4891B2FBF0895615030F02091F100A6
:10045000FC0120830196F8CF289884E680939602C9
:100460000895CF92DF92EF92FF920F931F93CF9355
:10047000DF936C017A018B01C0E0D0E0CE15DF057F
:1004800089F0D8016D918D01D601ED91FC9101901B
:10049000F081E02DC6010995892B11F47E0102C07F
:1004A0002196ECCFC701DF91CF911F910F91FF9063
:1004B000EF90DF90CF9008958091890281110DC057
:1004C00082E08093850284E0809386021092880205
:1004D0001092870281E08093890285E892E0089576
:1004E0000F931F93CF93DF931F92CDB7DEB782E0B8
:1004F000898342E450E061ED71E080E80E94EC0104
:100500000E945C02DC0112960D911C91139701155B
:10051000110569F0D801ED91FC910280F381E02D85
:10052000BE016F5F7F4FC801099597FF07C08981A2
:100530000F90DF91CF911F910F910895F8010085E1
:100540001185E5CFCF93DF931F92CDB7DEB76983D7
:10055000DC01ED91FC910280F381E02D41E050E05F
:10056000BE016F5F7F4F09950F90DF91CF91089586
:1005700083E08093E9008091F200882319F08AE3F8
:100580008093E800089583E00E94130290E00895AC
:10059000FC018485958597FD0BC09FB7F89482E098
:1005A0008093E9008091F2009FBF90E0019608954A
:1005B0009FB7F89482E08093E9008091F2009FBF9A
:1005C00090E0089590E0FC013197EF30F105B0F52F
:1005D000EA5AFF4F0C94DE1B809180008F7703C096
:1005E000809180008F7D80938000089580918000AD
:1005F000877FF9CF84B58F7702C084B58F7D84BDA6
:100600000895809190008F7707C0809190008F7D32
:1006100003C080919000877F80939000089580911F
:10062000C0008F7703C08091C0008F7D8093C00091
:1006300008958091C200877F8093C20008953FB7DC
:10064000F8948091810290918202A0918302B091EE
:10065000840226B5A89B05C02F3F19F00196A11D65
:10066000B11D3FBFBA2FA92F982F8827820F911D48
:10067000A11DB11DBC01CD0142E0660F771F881F8F
:10068000991F4A95D1F70895DC01FB0112968C91D0
:10069000129790E02481358182179307D1F49181DC
:1006A0008081813A31F481E0913091F0933089F486
:1006B00011C0813271F49B3021F482811F968C939A
:1006C00005C09A3031F4828150968C9381E0089570
:1006D000089580E00895DC01FB0188E4808389E4CB
:1006E000818384E482831D969C911D979F709F5BFC
:1006F00093831D968D919C911E9724E096958795E6
:100700002A95E1F78F708F5B848385E00895EF92DF
:10071000FF920F931F93CF93DF93FB01208121382A
:1007200051F52381223239F5DC0112962C9130E00B
:100730004481558142175307F1F4EC010B851C8568
:10074000E12CF12C0115110591F0F801448155813E
:100750006281738180E80E94EC018F3FFFEF9F0769
:1007600069F0E80EF91ED8010D911C91EBCF81E0E4
:100770008F87C70105C080E090E002C08FEF9FEF38
:10078000DF91CF911F910F91FF90EF900895CF933C
:10079000DF93CDB7DEB769970FB6F894DEBF0FBE13
:1007A000CDBFFC01DB018C918F5F8C93BE016F5F2D
:1007B0007F4F89E1DB011D928A95E9F729E02983C2
:1007C00084E08A8391E09D8383E08E832A8721E2FF
:1007D0002B879C879D879F8722E2288B27E02B8B86
:1007E00025E02C8B8E8B20E430E0388F2F8B998F77
:1007F00082818B8395858685998B8A8B838180689E
:100800008D8B49E150E080E00E94EC0169960FB6C3
:10081000F894DEBF0FBECDBFDF91CF910895FC01EC
:1008200082818F5BFB01808381E00895089580E0E1
:1008300090E008950E94121E0F931F93CF93DF93B1
:10084000EC0188819981009729F02A813B81261744
:10085000370788F48B016F5F7F4F0E94481D009718
:1008600061F0998388831B830A832C813D81232B2C
:1008700011F4FC01108281E001C080E0DF91CF9192
:100880001F910F910895CF93DF93EC018881998197
:10089000009711F00E94B01C198218821D821C82E0
:1008A0001B821A82DF91CF9108950F931F93CF93EC
:1008B000DF931F92CDB7DEB78C01FC01848595854F
:1008C00097FF0EC0CE0101960E94D80C019719F433
:1008D000298130E002C02FEF3FEFF80135872487F0
:1008E000F801848595850F90DF91CF911F910F912D
:1008F0000895CF93DF931F92CDB7DEB7FC018485B7
:10090000958597FD05C02FEF3FEF358724870BC0F6
:10091000CE0101960E94D80C019719F4898190E0CC
:1009200002C08FEF9FEF0F90DF91CF910895EF926C
:10093000FF920F931F93CF93DF93EC01FB01848110
:100940009581E080F1800C811D81E114F104B1F00A
:100950000097B9F0080F191FB801CE010E941C04BE
:10096000882361F0288139818C819D81B701820FB4
:10097000931F0E94201E1D830C8303C0CE010E9482
:100980004304CE01DF91CF911F910F91FF90EF9023
:100990000895FC01808191810C94B01CCF92DF926C
:1009A000EF92FF920F931F93CF93DF93CDB7DEB7F4
:1009B00062970FB6F894DEBF0FBECDBF8C01CB019E
:1009C000F80111821082138212821582148250E083
:1009D0009E012F5F3F4F6901B9010E940419F60182
:1009E00001900020E9F731977F01EC18FD08B7016D
:1009F000C8010E941C04811104C0C8010E94430464
:100A000008C0F801F582E482B601808191810E94DC
:100A1000201E62960FB6F894DEBF0FBECDBFDF91E9
:100A2000CF911F910F91FF90EF90DF90CF9008959D
:100A3000EF92FF920F931F93CF93DF93EC011982F4
:100A400018821B821A821D821C826115710521F198
:100A50008B01FB0101900020E9F731977F01E61A35
:100A6000F70AB7010E941C04811109C0CE01DF9171
:100A7000CF911F910F91FF90EF900C944304FD8252
:100A8000EC82B80188819981DF91CF911F910F91FC
:100A9000FF90EF900C94201EDF91CF911F910F914A
:100AA000FF90EF9008951F920F920FB60F921124AE
:100AB0008F939F938091E1009091E100937F9093B9
:100AC000E10083FF0FC01092E90091E09093EB00EA
:100AD0001092EC0092E39093ED001092970298E050
:100AE0009093F00082FF20C093E09093E9009091F2
:100AF000F200992319F09AE39093E80090919502FF
:100B0000992339F0909195029150909395029923F1
:100B100089F190919602992339F090919602915023
:100B200090939602992341F184FF10C08091E200D6
:100B30008E7E81608093E2008091E1008F7E8093C1
:100B4000E10080915D028E7E806111C080FF16C041
:100B50008091E2008E7E80618093E2008091E100CE
:100B60008E7E8093E10080915D028E7E8160809315
:100B70005D0204C05D9ACDCF289AD6CF9F918F9108
:100B80000F900FBE0F901F9018951F920F920FB6E7
:100B90000F921124CF92DF92EF92FF920F931F9347
:100BA0002F933F934F935F936F937F938F939F9375
:100BB000AF93BF93EF93FF93CF93DF93CDB7DEB7A0
:100BC0006C97DEBFCDBF1092E9008091E80083FFF3
:100BD000EDC168E0CE0145960E94240282EF809329
:100BE000E8008D8987FF05C09091E80090FFFCCF59
:100BF00003C09EEF9093E800982F907609F0C6C04E
:100C00009E892F89188D91110CC0803829F480910C
:100C10005E028093F10002C01092F1001092F10088
:100C200048C1422F50E0512B913051F4811141C104
:100C30004130510509F03DC180915E028D7F0BC0AE
:100C4000933061F4811135C14130510509F031C152
:100C500080915E02826080935E022BC1953041F4E8
:100C60008091E80080FFFCCF20682093E30021C141
:100C7000963009F05FC0EB8CFC8C1092E90010926A
:100C8000940210929302123091F5109292021092F7
:100C900091020E94700299E0BE016F5F7F4FDB01FD
:100CA000E92F1D92EA95E9F799831A8391E09E83D3
:100CB00090EA98879AEF9987209193023091940255
:100CC000275F3F4F3C832B838D831092E900109266
:100CD000940210929302F0929202E092910249E003
:100CE00050E080E00E94EC010E947002E2C0F092AD
:100CF0009202E09291020E945C02DC011296ED9059
:100D0000FC901397E114F10409F4C0C0D701ED91F0
:100D1000FC910480F581E02DBE016B5E7F4FC70121
:100D20000995009719F00CF0C4C0C7C0F701E08422
:100D3000F184E8CF973009F4C0C0983021F481E005
:100D40008093F100B6C0993009F0B3C0837009F008
:100D5000B4C0E1E0F1E081E021E036E39081992345
:100D600061F08093E9002093EB0091919093EC0067
:100D70003093ED008F5F873089F78EE78093EA002C
:100D80001092EA008F898093970293C08B8D9C8D7F
:100D90001092E900109294021092930290939202A2
:100DA00080939102898D811156C08E899D89913AD7
:100DB00059F4813209F081C047E050E06BE071E006
:100DC00080E00E94EC0175C0913209F076C0833258
:100DD00089F4888D90E0982F88272F89822BA0E0B6
:100DE000B0E08093070190930801A0930901B093AC
:100DF0000A015FC0803269F48091E80082FFFCCF75
:100E000067E08BE091E00E9424028BEF8093E80082
:100E100006C0823209F04DC08F8980931201809103
:100E20005C02882319F0EEEFFAE002C0E0E0F8E09F
:100E300080910B0190910C01A0910D01B0910E01D8
:100E4000803B9440A105B10509F07BC0809112015F
:100E500080FF93C076C00E945C02DC0112960D9167
:100E60001C9113970115110541F1D801ED91FC91E9
:100E70000190F081E02DBE016B5E7F4FC8010995A6
:100E8000811117C0F80100851185ECCF113009F4EC
:100E90004EC0133091F48F89882309F445C0823005
:100EA00081F440E860E185E392E00E94AF0188238D
:100EB00021F08EEF8093E80079C081E28093EB000F
:100EC00075C0813029F440E86BE089E292E0EDCF13
:100ED000833099F70E945C02DC011296ED90FC9041
:100EE00013978E010F5F1F4F6801E114F10479F031
:100EF000D701ED91FC910680F781E02DB801C70183
:100F00000995080F111DF701E084F184EECFD80197
:100F10001C92F60101900020E9F73197BF016C198E
:100F20007D0940E0C601C1CF63E172E002C067E124
:100F300072E06115710509F2FB01449150E080E80F
:100F400040CF0FB6F894A895809160008861809397
:100F50006000109260000FBEA895EE3F2AE0F207F5
:100F600039F08091FE0A9091FF0A91838083A1CF8E
:100F70001092FF0A1092FE0A9CCFEE3F8AE0F8071B
:100F800031F0808191819093FF0A8093FE0A87E778
:100F900097E7918380839BE088E10FB6F894A8954A
:100FA000809360000FBE9093600083CF6C960FB665
:100FB000F894DEBF0FBECDBFDF91CF91FF91EF91CF
:100FC000BF91AF919F918F917F916F915F914F9161
:100FD0003F912F911F910F91FF90EF90DF90CF9055
:100FE0000F900FBE0F901F9018956115710579F045
:100FF000FB0101900020E9F73197AF01461B570B29
:10100000DC01ED91FC910280F381E02D099480E0F8
:1010100090E008951F93CF93DF93282F30E0F901DC
:10102000EE54FE4F8491F901EB5FFE4FD491F9012C
:10103000EA51FF4FC491CC23C9F0162F81110E94B1
:10104000E202EC2FF0E0EE0FFF1FE653FF4FA591F9
:10105000B4918FB7F894111105C09C91ED2FE095D4
:10106000E92302C0EC91ED2BEC938FBFDF91CF9180
:101070001F9108958F929F92AF92BF92CF92DF926D
:10108000EF92FF926B017C010E941F034B015C01F8
:10109000C114D104E104F104F1F00E941F03DC014A
:1010A000CB0188199909AA09BB09883E9340A1057B
:1010B000B10570F321E0C21AD108E108F10888EE09
:1010C000880E83E0981EA11CB11CC114D104E10458
:1010D000F10419F7DDCFFF90EF90DF90CF90BF9034
:1010E000AF909F908F9008957F928F929F92AF9232
:1010F000BF92CF92DF92EF92FF920F931F93CF9305
:10110000DF93C82E8B017A0180919702811103C071
:101110008FEF9FEF75C080915D0280FF05C08091C9
:10112000E00082608093E000CE2DDF2DD12C8AEF8D
:10113000882E8C2D8770B82E8C2D8072A82E8C2D29
:101140008074982E9AE3792E209709F452C08C2D42
:101150000E941302282F81110AC08A948820C1F2AC
:1011600061E070E080E090E00E943A08EDCF90E00E
:10117000C817D9070CF42C2F3FB7F894B092E900A8
:101180008091E80085FF33C0822F90E0C81BD90B07
:10119000AA2029F02150A8F01092F100FBCFF8010D
:1011A000C7FE07C0215058F044914093F10031969A
:1011B000F9CF215020F041914093F100FACF080F70
:1011C000191FDD2019F07092E8000AC08091E80034
:1011D00085FD08C07092E800DD24D394209739F093
:1011E000D12C05C0209719F491107092E8003FBFF0
:1011F000ABCFD110ACCF5D9884E680939502C70148
:10120000DF91CF911F910F91FF90EF90DF90CF90E2
:10121000BF90AF909F908F907F900895CF93DF9372
:10122000EC0180911201882331F083E00E94740860
:101230001816190634F081E090E09B838A8380E0E1
:1012400090E0DF91CF9108951F920F920FB60F9209
:1012500011242F933F938F939F93AF93BF938091CC
:101260007D0290917E02A0917F02B0918002309128
:101270007C0223E0230F2D3720F40196A11DB11D20
:1012800005C026E8230F0296A11DB11D20937C0204
:1012900080937D0290937E02A0937F02B0938002A0
:1012A0008091810290918202A0918302B091840288
:1012B0000196A11DB11D8093810290938202A0939B
:1012C0008302B0938402BF91AF919F918F913F9120
:1012D0002F910F900FBE0F901F9018951F920F9295
:1012E0000FB60F9211242F933F934F935F936F93F9
:1012F0007F938F939F93AF93BF93CF93DF93EF939E
:10130000FF932091060330E0F901EE54FE4F8491E3
:10131000F901EB5FFE4FD491F901EA51FF4FC491FF
:10132000CC23A1F081110E94E202EC2FF0E0EE0F3D
:10133000FF1FEC55FE4FA591B491EC91ED2331E0E8
:1013400020E009F430E0832F922F02C080E090E08B
:1013500020910A0330910B032F5F3F4F30930B0313
:1013600020930A0320910903253618F026E02093E4
:101370000503209105032430D9F128F4223069F0C7
:101380002330D9F060C0253009F453C0263009F06D
:101390005AC021E02093D60353C0009709F053C0F0
:1013A00020910A0330910B032436310508F443C021
:1013B0001092D603109209031DC08130910509F0E7
:1013C00042C0E091090321E02E0F20930903F0E0D1
:1013D00020910A0330910B03EE0FFF1FEB5FFC4FD0
:1013E0003087278310920B0310920A0324E029C050
:1013F0000097B9F4E091090321E02E0F209309032F
:10140000F0E020910A0330910B03EE0FFF1FEB5F1A
:10141000FC4F3087278310920B0310920A0323E0BE
:1014200010C020910A0330910B032536310558F086
:1014300007C0009741F410920B0310920A0303C0F7
:1014400025E020930503209108032223B9F0892B7E
:1014500051F480910703882321F08091070361E014
:1014600009C02D9A0BC080910703882331F0809129
:10147000070360E00E940A0801C02D98FF91EF91D8
:10148000DF91CF91BF91AF919F918F917F916F919C
:101490005F914F913F912F910F900FBE0F901F9032
:1014A0001895CF92DF92EF92FF92CF93DF93EC01EA
:1014B000072E000C880B990B0E944B196B017C01C5
:1014C00020E030E040E45FE30E94AA1920E030E031
:1014D00048E452E40E94261B0E94981BC617D707B7
:1014E000D4F020E030E040EA5FE3C701B6010E949B
:1014F000AA1920E030E048E452E40E94261B20E0D4
:1015000030E040E85FE30E94BA1A0E94981B21E095
:101510006C177D070CF420E0822F90E0DF91CF91D3
:10152000FF90EF90DF90CF900895AF92BF92CF924F
:10153000DF92EF92FF920F931F93CF93DF931F924F
:10154000CDB7DEB77C0169836A01590141E050E003
:10155000BE016F5F7F4FFC0183810E9474088C0184
:1015600097FD0BC0F7018381A501B60180640E943D
:10157000740897FD02C0800F911F0F90DF91CF91EB
:101580001F910F91FF90EF90DF90CF90BF90AF90A1
:1015900008958091740281116BC081E0809367028D
:1015A000809368022DE632E030936A02209369024C
:1015B00010926C0210926B022DE131E030936402C4
:1015C0002093630210926F0210926E0210927102C9
:1015D00010927002809372028093730281EC809368
:1015E0006D020E945C02FC0121818091670290E003
:1015F000820F911D089724F081E08093740238C017
:10160000A281B381109729F483E692E093838283C9
:101610000EC018968D919C911997009711F0DC01DE
:10162000F8CF83E692E019969C938E931897808169
:101630008093650281818093660290818091680227
:10164000890F808380E0909167028917A8F6A091A6
:101650006902B0916A02A80FB11D9C91A181B0E00E
:10166000A050BF4F9C9391819F5F91838F5FEBCF81
:1016700083E692E00895CF93DF93EB010E94C90ABD
:1016800028E030E0AE0162E0DF91CF910C94950A42
:10169000DC01683810F068582DC0E62FF0E067FFD5
:1016A00011C0E058F10981E090E001C0880FEA958F
:1016B000EAF714969C911497892B14968C9314979F
:1016C00060E018C0EC5DFE4F6491611109C081E0DB
:1016D00090E013969C938E93129780E090E008958B
:1016E00067FF08C014968C911497826014968C93AF
:1016F00014976F7716968C911697861751F1179657
:101700008C911797861729F118968C911897861740
:1017100001F119968C9119978617D9F01A968C9128
:101720001A978617B1F01B968C911B97861789F034
:10173000FD01369680E090E02191211105C0FD0168
:10174000E80FF91F668305C0019686309105A1F761
:10175000BECFCD01BD016C5F7F4F0E943B0B81E08E
:1017600090E00895EF92FF920F931F93CF938C0117
:10177000C62F0E94480B7C01C83818F068E76C0F30
:101780001FC0EC2FF0E0C7FF0FC0E058F10921E0C7
:1017900030E001C0220FEA95EAF72095F801848134
:1017A0002823248360E00CC0EC5DFE4F6491662327
:1017B000D1F067FF05C0F80184818D7F84836F7746
:1017C000F801369686E0662321F09081961301C0D9
:1017D0001082815031968111F6CFB8016C5F7F4F36
:1017E000C8010E943B0BC7019927CF911F910F9110
:1017F000FF90EF900895CF93DF93BC0188EA92E0C9
:101800000E94F507EC0168E572E088EA92E00E9428
:10181000F5078C0F9D1FDF91CF910895CF93DF9334
:10182000E091A802F091A902DC0114964D915C911F
:1018300015976D917C910280F381E02D88EA92E00A
:101840000995EC0168E572E088EA92E00E94F507EC
:101850008C0F9D1FDF91CF910895CF93DF9300D020
:1018600000D0CDB7DEB79091F80299838A836B835D
:101870001C820E94C90A24E030E0AE014F5F5F4F36
:1018800061E00E94950A0F900F900F900F90DF91EA
:10189000CF9108958093F80260E080E00E942D0CC3
:1018A0001092F80260E080E00C942D0CE9EFF2E079
:1018B00016821782108611861286138614826DEFA7
:1018C00072E0CF010C943B0B8F929F92AF92BF922C
:1018D000CF92DF92EF92FF920F931F93CF93DF93FC
:1018E000FC01C081D1812091A4023091A502C217D0
:1018F000D3070CF04BC09E01220F331FE091A202D0
:10190000F091A302E20FF31F80809180C170DD2768
:10191000F1E0CF27209719F404E610E002C00CE9AB
:101920001FEF7A015B016C01040F151FB801C401A0
:101930000E94510A892B99F40E0D1F1DB801C40194
:101940000E94510A892B71F4B8016E0D7F1DC401EC
:101950000E94510A892BE9F023E030E005C021E024
:1019600030E002C022E030E0F501808191810196F3
:10197000821793073CF0F50111821082F6018081F5
:101980009181019691838083CE0105C081E090E032
:1019900002C08FEF9FEFDF91CF911F910F91FF90CA
:1019A000EF90DF90CF90BF90AF909F908F90089571
:1019B000FC0180919702811103C08FEF9FEF089582
:1019C0009FB7F89482E08093E9002091F20030E024
:1019D0001216130614F421E030E02115310559F0F8
:1019E000289884E6809396028091F100808380910C
:1019F000F200882319F09FBFC90108958BE68093F8
:101A0000E800F9CFCF93DF93CDB7DEB764970FB679
:101A1000F894DEBF0FBECDBF789484B5826084BDDC
:101A200084B5816084BD85B5826085BD85B58160E2
:101A300085BD80916E00816080936E001092810060
:101A4000809181008260809381008091810081601B
:101A500080938100809180008160809380008091DC
:101A600091008260809391008091910081608093C9
:101A70009100809190008160809390008091C100DE
:101A800084608093C1008091C10082608093C10016
:101A90008091C10081608093C1008091C30081600A
:101AA0008093C3008091C00082608093C0008091C9
:101AB000C20081608093C20080917A00846080932C
:101AC0007A0080917A00826080937A0080917A0017
:101AD000816080937A0080917A00806880937A0098
:101AE0001092970210925E0210925D028091D700D0
:101AF00081608093D70080EA8093D80089B58061A7
:101B000089BD89B5826089BD09B400FEFDCF61E061
:101B100070E080E090E00E943A088091D8008F7CCD
:101B200080618093D8008091E000807F8093E00006
:101B30008091E1008E7E8093E1008DE08093E20051
:101B4000559A209AEEEFFFE7859194918B3F9C4D3B
:101B500019F481E080935C028FEF9FEF9093B502C0
:101B60008093B402F8941092C00081E08093C10089
:101B70001092C2001092C3001092C40083E08093C0
:101B8000BF0080E28093D1001092BF001092BF008E
:101B90001092BE0084E080937200789482E080937B
:101BA0000503109209038091060390E0FC01EB5FAE
:101BB000FE4F2491FC01EA51FF4F84918823C9F024
:101BC00090E0880F991FFC01E852FF4F4591549116
:101BD000FC01E653FF4FA591B4919FB7F894FA0129
:101BE00080812095822380838C91E22FE823EC93DF
:101BF0009FBFE9E0F1E02491EAEEF0E084918823D0
:101C000099F090E0880F991FFC01E852FF4FA591D1
:101C1000B491FC01E653FF4F859194918FB7F894EE
:101C2000EC91E22BEC938FBF109262021092610252
:101C300085E090E09093600280935F028AE592E0F5
:101C40000E94FB0B62E370E080E090E00E943A08A3
:101C500044244A94542C320110E2212E312C8091DC
:101C60006202882311F060E001C061E084E00E941C
:101C70000A082CE033E03093A3022093A202809163
:101C8000090390E09093A5028093A4028091D6036B
:101C900090E09093A7028093A6028091050385307F
:101CA00009F030C280910E0390910F03885891097A
:101CB0008D35910588F480910903843041F4809139
:101CC0001003909111038097479708F43CC28091CC
:101CD0000903843408F01EC2809109038A3108F494
:101CE0004FC080910C0390910D03843F914068F4A4
:101CF0001092A1021092A00240929C0250929D026A
:101D000060929E0270929F0259C080910E03909142
:101D10000F0385974B97A0F5E2E1F3E082E090E0B6
:101D2000C12CD12C7601AC014F5F5F4F209109038C
:101D300030E0421753075CF4DF0112972D913C917C
:101D4000275031092730310508F443C2CA010197F1
:101D5000959587959093A1028093A0020C972CF4FF
:101D60001092A1021092A0020BC0C0929C02D092CD
:101D70009D02E0929E02F0929F0284E090E04FC3A9
:101D8000809109038A3108F44CC080910C03909132
:101D90000D038032934008F4ABCF80910E039091F5
:101DA0000F03C697869708F431C23BC0C0929C02CD
:101DB000D0929D02E0929E02F0929F028BE090E012
:101DC0002EC320813181255231092B31310508F094
:101DD0002DC2CC0CDD1CEE1CFF1C6894C0F80296D2
:101DE0003496AC014F5F5F4F2091090330E04217FA
:101DF000530754F4DF0112972D913C912C50310977
:101E00002B303105F0F2CA01019795958795909393
:101E1000A1028093A0020C974CF61092A10210929E
:101E2000A00280910903823208F44DC080910E0314
:101E300090910F030697079708F045C0E2E1F3E0A1
:101E400082E090E0C12CD12C76019C012F5F3F4FA6
:101E50004091090350E024173507E4F4DF0112979D
:101E60004D915C9111974E5151094731510508F040
:101E7000EAC1CC0CDD1CEE1CFF1C6894C0F840814C
:101E800051813496435051094530510510F4029662
:101E9000DCCFC9010197959587959093A102809316
:101EA000A00240972CF41092A1021092A0020BC045
:101EB000C0929C02D0929D02E0929E02F0929F02FC
:101EC0008CE090E0ACC218861F82E1E0F0E0FA837B
:101ED000E983809109038D3008F46BC049E753E032
:101EE000BE01695F7F4FCE0101960E94640C892B71
:101EF00009F05FC049E753E0BE01695F7F4FCE0143
:101F000001960E94640C019709F053C049E753E021
:101F1000BE01695F7F4FCE0101960E94640C892B40
:101F200009F047C0812C912C540100E010E0809111
:101F3000090390E029813A81281739075CF549E7C0
:101F400053E0BE01695F7F4FCE0101960E94640C91
:101F50007C0149E753E0BE01695F7F4FCE010196E6
:101F60000E94640CF1E0EF16F10449F4892B09F5A5
:101F7000880C991CAA1CBB1C689480F808C0EF2828
:101F8000C1F40197B1F4880C991CAA1CBB1C0F5F0B
:101F90001F4FCDCF1093A1020093A00280929C020C
:101FA00090929D02A0929E02B0929F0221E030E0AA
:101FB00007C618861F8281E090E09A83898380910A
:101FC000A4029091A502181619060CF058C0E091D1
:101FD000A202F091A30282E090E09A838983828139
:101FE000938189974E9708F04AC083E090E09A83E6
:101FF0008983848195810B970A9708F040C04CEB48
:1020000051E0BE01695F7F4FCE0101960E94640CD2
:10201000892BA9F54CEB51E0BE01695F7F4FCE01E2
:1020200001960E94640C019751F5812C912C54016A
:1020300000E010E029813A818091A4029091A502EC
:10204000281739070CF042C14CEB51E0BE01695F23
:102050007F4FCE0101960E94640C6C010330110584
:1020600009F0FEC04CEB51E0BE01695F7F4FCE012D
:1020700001960E94640CC816D90609F4F1C0E091DB
:10208000A202F091A30282819381C697869708F4F9
:102090002CC187C1803610EA91071DEFA107B10559
:1020A00008F4C5C38F34F0EB9F07FDEFAF07B10510
:1020B00009F03AC46091620281E06827609362028D
:1020C00070E04AE0CE0107960E94CE0468E471E019
:1020D000CE0101960E941805BE01695F7F4FCE01B7
:1020E00001960E9497040E940E0CCE0101960E9458
:1020F000C904CE0107960E94C90482E080930503BB
:102100001092090380E090E0892B09F4A8CD0E9489
:102110000000A2CD80911003909111038254910987
:102120008E9708F0D9CD80E090E040E050E0BA0111
:10213000FC01EE5EFC4F20813181295031092930AC
:102140003105C0F0C9CD8091120390911303099716
:10215000099708F0BCCD1092A1021092A002409203
:102160009C0250929D0260929E0270929F0223E018
:1021700030E026C5FC01EC5EFC4F20813181275107
:10218000310922313105C0F4440F551F661F771FF6
:10219000416004968038910559F63092A102209250
:1021A000A00240939C0250939D0260939E02709304
:1021B0009F0283E090E033C12081318126503109B4
:1021C0002730310508F088CD440F551F661F771F53
:1021D000E0CF20813181235131092F30310548F47E
:1021E000CC0CDD1CEE1CFF1C6894C0F802963496E3
:1021F0009ACD208131812A5031092930310508F0EA
:10220000BFCDCC0CDD1CEE1CFF1CF0CF8091100369
:1022100090911103C697869708F003CEE4E1F3E0AE
:1022200083E090E0C12CD12C7601DBCD208131817F
:102230002C5031092A30310508F0F3CDCC0CDD1CCF
:10224000EE1CFF1CCCCD4D915C914C5051094B3094
:10225000510508F038CECC0CDD1CEE1CFF1C0FCE57
:102260004CEB51E0BE01695F7F4FCE0101960E94A9
:10227000640C7C010330110569F44CEB51E0BE01A4
:10228000695F7F4FCE0101960E94640CE816F90643
:1022900009F0F5CEC114D10459F4EA94EF2809F0FD
:1022A000EECE880C991CAA1CBB1C689480F80BC04D
:1022B000CA94CD2809F0E3CEEF2809F0E0CE880CCF
:1022C000991CAA1CBB1C0F5F1F4FB4CE1093A10218
:1022D0000093A00280929C0290929D02A0929E0286
:1022E000B0929F0282E090E09AC0848195814B97E2
:1022F000459708F056C0DF0116966F0196ECC90E9F
:10230000D11C20E030E040E050E060E070E080E090
:1023100090E0ED90FC90119719E0E11AF10818E0B7
:10232000E116F104F0F51296ED90FC90139711E18F
:10233000E11AF1081DE0E116F10420F501E00E9428
:10234000E41B21601496AC15BD0519F720939C027F
:1023500030939D0240939E0250939F0200E20E94A0
:10236000FF1B20939A0230939B0285E090E09093AC
:1023700099028093980280E390E09093A102809369
:10238000A00278C01296ED90FC90139714E0E11A29
:10239000F10815E0E116F10420F401E00E94E41BCD
:1023A000D1CF80910903893340F08281938189578D
:1023B00091098335910508F416C58091090382328D
:1023C00099F182819381895791098335910508F4A8
:1023D000A3C3828193818C549109C59708F0FAC3F5
:1023E00080910903843009F0F0C38481958180973E
:1023F000479708F0EAC3868197810997099708F003
:10240000E4C31092A1021092A00240929C0250924A
:102410009D0260929E0270929F0287E090E09093EE
:1024200099028093980226C0828193810A97099726
:1024300040F620910903CF01820F911D820F911D5B
:10244000DC0112978D919C910A97099708F0B9CFFA
:102450001092A1021092A00240929C0250929D0202
:1024600060929E0270929F02E6E0F0E0F093990283
:10247000E093980280919C0290919D02A0919E020F
:10248000B0919F028F37E0E89E07EDEFAE07B105F0
:1024900041F580916102811109C080916202882317
:1024A00029F06DE489EF92E00E94B20B8EE591E095
:1024B00015C0803FE0E19E07EDEFAE07B10508F0E3
:1024C00050C08F3F9105FDEFAF07B105C1F561EB3E
:1024D00089EF92E00E94B20B83E491E00E94FB0B33
:1024E0000CCE8038F0E89F07FDEFAF07B10508F08C
:1024F00077C18F3C10E391071DEFA107B10541F4AF
:1025000060E389EF92E00E94B20B88EC91E0E6CFA5
:10251000803D20E392072DEFA207B10508F06FC0C0
:102520008F3E30E193073DEFA307B10511F667E356
:1025300089EF92E00E94B20B89EB91E0CFCF873F09
:102540009840AD4FB10509F0D8CD8091610281115D
:1025500005C060E289EF92E00E94B20B87E791E04C
:10256000BDCF8F3D20E292072DEFA207B10541F4C8
:1025700063E389EF92E00E94B20B85EA91E0AECF6F
:10258000873D38E293073DEFA307B10561F48091E1
:102590006102882329F060915F0280E00E942D0C87
:1025A00088E691E09BCF8D3E9241AD4FB10509F099
:1025B000A4CD80916102882391F060915F027091B7
:1025C00060026B5F7F4F7093600260935F024AE02E
:1025D000CE0107960E94CE046CE771E079CD6AEDDA
:1025E00089EF92E00E94480B6EE170E080E090E09D
:1025F0000E943A080E94560C8FE791E06FCF8F3A05
:10260000F0E59F07FDEFAF07B10541F469E389EFFE
:1026100092E00E94B20B83EC91E060CF803B10E52A
:1026200091071DEFA107B10508F082C08F3B20E4A0
:1026300092072DEFA207B10541F461E389EF92E023
:102640000E94B20B8BE991E049CF873B38E49307B6
:102650003DEFA307B105D1F580916102882331F0E8
:1026600060E080915F020E942D0C2DC0809162027B
:10267000882321F160EB89EF92E00E94B20B69E1BF
:1026800070E080E090E00E943A0867ED89EF92E008
:102690000E94480B64E170E080E090E00E943A08FC
:1026A00060EB89EF92E00E94480B64E170E080E00B
:1026B00090E00E943A080E94560C05C06EE289EF35
:1026C00092E00E94B20B83E691E008CF8D3C9243EA
:1026D000AD4FB10509F011CD63E889EF92E00E949A
:1026E000480B69E170E080E090E00E943A0862E700
:1026F00089EF92E00E94480B69E170E080E090E091
:102700000E943A080E94560C69E170E080E090E077
:102710000E943A086DEC71E089EF92E00E94F507A3
:1027200060EB89EF92E00E94480B80EF91E0D6CEFB
:102730008F39F0E69F07FDEFAF07B10541F465E380
:1027400089EF92E00E94B20B8FEA91E0C7CE8D38FC
:1027500012E791071DEFA107B10561F563E889EF65
:1027600092E00E94480B69E170E080E090E00E94F6
:102770003A0862E789EF92E00E94480B69E170E055
:1027800080E090E00E943A080E94560C69E170E0F7
:1027900080E090E00E943A0862E272E089EF92E005
:1027A0000E94F50760EB89EF92E00E94480B8BE3F3
:1027B00092E094CE8D3A9245AD4FB10509F09DCC93
:1027C00080916102811109C080916202811105C06E
:1027D00067ED89EF92E00E94B20B8CE891E07ECE2B
:1027E0008F3330EC93073DEFA307B10541F462E36B
:1027F00089EF92E00E94B20B80EA91E06FCE8034C4
:10280000E0EC9E07EDEFAE07B10508F0D8C08F35BC
:10281000F0EA9F07FDEFAF07B10509F03BCC64E399
:1028200089EF92E00E94B20B8AEA91E057CE8F3690
:1028300020E992072DEFA207B10541F468E389EF83
:1028400092E00E94B20B8EEB91E048CE8D3632E9D9
:1028500093073DEFA307B10531F58091610288230D
:1028600091F060915F027091600265507109709300
:10287000600260935F024AE0CE0107960E94CE0498
:1028800064E871E025CC69ED89EF92E00E94480B85
:102890006EE170E080E090E00E943A080E94560CE1
:1028A00087E891E01BCE87379848AD4FB10509F016
:1028B00024CC80916102882339F080915F0260E02E
:1028C00081950E942D0C2DC080916202882321F1F8
:1028D00060EB89EF92E00E94B20B69E170E080E06A
:1028E00090E00E943A0868ED89EF92E00E94480B60
:1028F00064E170E080E090E00E943A0860EB89EFCC
:1029000092E00E94480B64E170E080E090E00E9459
:102910003A080E94560C05C06CE289EF92E00E94D2
:10292000B20B8DE691E0DACD8D3412EB91071DEFFD
:10293000A107B10561F563E889EF92E00E94480BB9
:1029400069E170E080E090E00E943A0862E789EF78
:1029500092E00E94480B69E170E080E090E00E9404
:102960003A080E94560C69E170E080E090E00E9415
:102970003A0865EF71E089EF92E00E94F50760EB9D
:1029800089EF92E00E94480B8DE192E0A7CD873558
:10299000984AAD4FB10509F0B0CB80916102811129
:1029A0000BC080916202882311F066E401C06CE5DF
:1029B00089EF92E00E94B20B86E991E08FCD8F31D2
:1029C00030EE93073DEFA307B10541F466E389EFCD
:1029D00092E00E94B20B84EB91E080CD8032E0EE79
:1029E0009E07EDEFAE07B10508F040C08F32F0ED65
:1029F0009F07FDEFAF07B10579F46091610281E0B7
:102A000068276093610270E04AE0CE0107960E9459
:102A1000CE046EE471E05CCB8D3212ED91071DEFB8
:102A2000A107B10581F480916102811109C08091F3
:102A30006202811105C068ED89EF92E00E94B20B3D
:102A400081E991E04BCD8733984CAD4FB10509F04A
:102A500054CB80916102882331F060915F026195CF
:102A600080E00E942D0C82E791E038CD8F3030EF6E
:102A700093073DEFA307B10559F4809161028823C4
:102A800009F43BCB82E00E944A0C89E591E026CD17
:102A90008D30E2EF9E07EDEFAE07B10561F563E81B
:102AA00089EF92E00E94480B69E170E080E090E0DD
:102AB0000E943A0862E789EF92E00E94480B69E1C0
:102AC00070E080E090E00E943A080E94560C69E1B4
:102AD00070E080E090E00E943A0860E472E089EFE4
:102AE00092E00E94F50760EB89EF92E00E94480BAC
:102AF00083E592E0F3CC8D31924EAD4FB10509F0F4
:102B0000FCCA80916102882309F4F7CA81E00E941F
:102B10004A0C84E591E0E2CC80910903813208F40B
:102B200058CC84819581CA97899708F052CC9F012F
:102B30002A5F3F4FC12CD12C760143E050E0D901F0
:102B40006D917C916A5071096930710508F041CC32
:102B5000D90112966D917C9113976651710961317B
:102B6000710508F09FC1D701C601880F991FAA1FE0
:102B7000BB1F6C017D016894C0F84E5F5F4F2C5FF6
:102B80003F4F43325105D9F69F012A5B3F4FD90190
:102B90002D913C912A5031092930310508F019CC8A
:102BA000E0E1F0E0F093A102E093A002C0929C0269
:102BB000D0929D02E0929E02F0929F0226E030E0C9
:102BC000309399022093980255CC80910903843464
:102BD00008F078C180910903863460F18281938185
:102BE0000C970B9708F4BDC125C0D90112966D91C1
:102BF0007C9113976E5171096731710508F0E7C137
:102C0000D701C601880F991FAA1FBB1F6C017D0148
:102C10006894C0F84E5F5F4F2C5F3F4F45345105BD
:102C200009F4BAC1D9016D917C916C5071096B3076
:102C30007105D8F280910903883578F182819381FA
:102C4000855891098B35910508F4D1C126C0BC0186
:102C50006F5F7F4FD8014D915C91475051094730CC
:102C6000510508F0D3C1220F331F216002960C5F7B
:102C70001F4F4091090350E04450510984179507B4
:102C80000CF0CDC1A80142505109DA014D915C917F
:102C90004950510948305105D0F2809109038032E2
:102CA000E1F48281938106970697B8F48481958137
:102CB0000997099790F49F012A5F3F4FBF01625C1B
:102CC0007F4FC12CD12C7601D9014D915C9146509A
:102CD00051094630510508F4BEC12091A40230913B
:102CE000A502388B2F87263031050CF406CA8F01D8
:102CF0000A5F1F4F95ECC92E9DE9D92E9CE1E92E64
:102D000091E8F92E83E090E09E878D87D8016D9140
:102D10007C91F8013497A080B18080E090E00E941F
:102D20004919698B7A8B8B8B9C8BB50180E090E085
:102D30000E9449194B015C012DEC3CEC4CE45FE333
:102D40000E94AA199B01AC0169897A898B899C89A7
:102D50000E94441987FD19C02DEC3CEC4CE45FE364
:102D600069897A898B899C890E94AA199B01AC0187
:102D7000C501B4010E944419E82F880FFF0BEE270C
:102D8000FF0FEE1FFF27319602C0E0E0F0E0A70141
:102D9000960163E971E080E091E00E94CE1B6F0133
:102DA000FF0FEE08FF08C626D726E826F926ED8590
:102DB000FE853196FE87ED870E5F1F4F2F85388980
:102DC000E217F30709F0A2CFC0929C02D0929D02B5
:102DD000E0929E02F0929F023092A1022092A00205
:102DE0008FEF9FEF1CCB84819581CA97899708F05C
:102DF000E4CA9F012A5F3F4FC12CD12C760143E0EA
:102E000050E0D9016D917C916A507109693071056A
:102E100008F0D3CAD90112966D917C91139766512F
:102E200071096131710570F5D701C601880F991FCD
:102E3000AA1FBB1F6C017D016894C0F84E5F5F4FF5
:102E40002C5F3F4F4B335105E1F69F012A583F4F0E
:102E5000D9012D913C912A5031092930310508F0D2
:102E6000ACCA2CE130E03093A1022093A002C092C2
:102E70009C02D0929D02E0929E02F0929F028AE014
:102E800090E0CDCAD90112966D917C91139766504E
:102E900071096730710508F090CACC0CDD1CEE1C7E
:102EA000FF1CCCCFD90112966D917C91139766507F
:102EB00071096730710508F08CCACC0CDD1CEE1C62
:102EC000FF1C5BCE8481958189549109C39708F0DA
:102ED00081CE9F012A5F3F4FBF016A577F4FC12CB0
:102EE000D12C7601D9014D915C914950510949305D
:102EF000510508F06FCED90112964D915C91139750
:102F00004651510941315105E0F4D701C601880FFE
:102F1000991FAA1FBB1F6C017D016894C0F82C5F2C
:102F20003F4F26173707F1F63092A1022092A002F8
:102F3000C0929C02D0929D02E0929E02F0929F026B
:102F40006CCAD90112964D915C9113974650510964
:102F50004730510508F03ECECC0CDD1CEE1CFF1CAA
:102F6000DECF848195810997099708F063CE868129
:102F700097818C974F9708F05DCE808591858997D2
:102F80004D9708F057CE9F01265F3F4FC12CD12CA3
:102F9000760145E050E046CE9F0126573F4FD901CC
:102FA0002D913C912C5031092B30310508F042CE47
:102FB0003092A1022092A002C0929C02D0929D0267
:102FC000E0929E02F0929F0288E090E028CAD90128
:102FD00012966D917C911397695071096930710552
:102FE00008F028CECC0CDD1CEE1CFF1C13CE848117
:102FF0009581825491098E9708F04FCE8F01045C21
:103000001F4F8DE190E020E030E033CED8014D91AC
:103010005C914851510942315105D0F0CB010197E3
:10302000959587959093A1028093A0028A970CF4BE
:1030300034CEC901330FAA0BBB0B80939C02909333
:103040009D02A0939E02B0939F0289E090E0E7C9A1
:10305000220F331F0BCED90112964D915C9113971D
:10306000495151094331510508F5D701C601880F6F
:10307000991FAA1FBB1F6C017D016894C0F82C5FCB
:103080003F4F2617370709F01FCE2EE030E0309370
:10309000A1022093A002C0929C02D0929D02E092D5
:1030A0009E02F0929F028FE090E0B9C9D90112967A
:1030B0004D915C911397495051094930510508F0E1
:1030C0000CCECC0CDD1CEE1CFF1CD9CF1092AB0239
:1030D0001092AA0288EE93E0A0E0B0E08093AC02E8
:1030E0009093AD02A093AE02B093AF0289E291E05B
:1030F0009093A9028093A8028FEF9FEF9093B5025F
:103100008093B4021092F8028091DE03811113C003
:103110001092D9031092D80386E492E09093DB03D7
:103120008093DA0386E390E09093DD038093DC03E1
:1031300081E08093DE030E94C90AFC01A385B48567
:10314000109729F488ED93E0948783870BC08D91C5
:103150009C911197009711F0DC01F9CF88ED93E075
:103160008D939C93258536858091DC039091DD03BA
:10317000820F931F968785871092FC021092FB02A4
:103180008BE391E09093FA028093F9028091EC0333
:10319000811113C01092E7031092E6038CE792E0CE
:1031A0009093E9038093E8038FE290E09093EB0320
:1031B0008093EA0381E08093EC030E94C90AFC013A
:1031C000A385B485109729F486EE93E094878387CE
:1031D0000BC08D919C911197009711F0DC01F9CFF4
:1031E00086EE93E08D939C93258536858091EA0346
:1031F0009091EB03820F931F9687858782E08093DF
:1032000006031092080308954532510520F4423018
:1032100010F00C940F19FB011082CB010895BB270D
:103220004A3031F4992322F4BDE2909581959F4F65
:103230000C941B19BB27FB015527AA27880F991F40
:10324000AA1FA41710F0A41B83955051B9F7A05DD5
:10325000AA3308F0A95DA193009779F7B111B19352
:103260001192CB010C943419DC01FC01672F719190
:103270007723E1F7329704C07C916D93708362915C
:10328000AE17BF07C8F308950E94861908F481E0BD
:103290000895E89409C097FB3EF490958095709549
:1032A00061957F4F8F4F9F4F9923A9F0F92F96E992
:1032B000BB279395F695879577956795B795F11107
:1032C000F8CFFAF4BB0F11F460FF1BC06F5F7F4FA4
:1032D0008F4F9F4F16C0882311F096E911C07723B6
:1032E00021F09EE8872F762F05C0662371F096E8BF
:1032F000862F70E060E02AF09A95660F771F881F8E
:10330000DAF7880F9695879597F90895990F000831
:10331000550FAA0BE0E8FEEF16161706E807F907A7
:10332000C0F012161306E407F50798F0621B730B42
:10333000840B950B39F40A2661F0232B242B252BC3
:1033400021F408950A2609F4A140A6958FEF811D66
:10335000811D08950E94BD190C942E1A0E94201AF6
:1033600038F00E94271A20F0952311F00C94171AB8
:103370000C941D1A11240C94621A0E943F1A70F3C7
:10338000959FC1F3950F50E0551F629FF001729F0A
:10339000BB27F00DB11D639FAA27F00DB11DAA1F19
:1033A000649F6627B00DA11D661F829F2227B00D66
:1033B000A11D621F739FB00DA11D621F839FA00DF1
:1033C000611D221F749F3327A00D611D231F849F41
:1033D000600D211D822F762F6A2F11249F57504098
:1033E0009AF0F1F088234AF0EE0FFF1FBB1F661F13
:1033F000771F881F91505040A9F79E3F510580F0DC
:103400000C94171A0C94621A5F3FE4F3983ED4F3BD
:10341000869577956795B795F795E7959F5FC1F77F
:10342000FE2B880F911D9695879597F9089597F92A
:103430009F6780E870E060E008959FEF80EC08955A
:1034400000240A9416161706180609060895002483
:103450000A9412161306140605060895092E0394FD
:10346000000C11F4882352F0BB0F40F4BF2B11F471
:1034700060FF04C06F5F7F4F8F4F9F4F089557FDD0
:103480009058440F551F59F05F3F71F04795880FD2
:1034900097FB991F61F09F3F79F087950895121669
:1034A00013061406551FF2CF4695F1DF08C0161615
:1034B00017061806991FF1CF8695710561050894C6
:1034C0000895E894BB2766277727CB0197F90895DD
:1034D0000E94AA1AA59F900DB49F900DA49F800DE5
:1034E000911D112408952F923F924F925F926F92F7
:1034F0007F928F929F92AF92BF92CF92DF92EF9284
:10350000FF920F931F93CF93DF93CDB7DEB7CA1B04
:10351000DB0B0FB6F894DEBF0FBECDBF09942A882F
:10352000398848885F846E847D848C849B84AA84D7
:10353000B984C884DF80EE80FD800C811B81AA8164
:10354000B981CE0FD11D0FB6F894DEBF0FBECDBF2F
:10355000ED010895A29FB001B39FC001A39F700D1C
:10356000811D1124911DB29F700D811D1124911D8B
:1035700008955058BB27AA270E94D11A0C942E1ADE
:103580000E94201A38F00E94271A20F039F49F3F39
:1035900019F426F40C941D1A0EF4E095E7FB0C9434
:1035A000171AE92F0E943F1A58F3BA1762077307D8
:1035B0008407950720F079F4A6F50C94611A0EF4AF
:1035C000E0950B2EBA2FA02D0B01B90190010C0133
:1035D000CA01A0011124FF27591B99F0593F50F44B
:1035E000503E68F11A16F040A22F232F342F4427A3
:1035F000585FF3CF469537952795A795F04053959B
:10360000C9F77EF41F16BA0B620B730B840BBAF06A
:103610009150A1F0FF0FBB1F661F771F881FC2F7D5
:103620000EC0BA0F621F731F841F48F487957795E9
:103630006795B795F7959E3F08F0B0CF9395880FA3
:1036400008F09927EE0F9795879508950E943A1BE9
:103650000C942E1A0E94271A58F00E94201A40F04B
:1036600029F45F3F29F00C94171A51110C94621A37
:103670000C941D1A0E943F1A68F39923B1F3552345
:1036800091F3951B550BBB27AA2762177307840775
:1036900038F09F5F5F4F220F331F441FAA1FA9F30B
:1036A00035D00E2E3AF0E0E832D091505040E695F9
:1036B000001CCAF72BD0FE2F29D0660F771F881F5A
:1036C000BB1F261737074807AB07B0E809F0BB0B4D
:1036D000802DBF01FF2793585F4F3AF09E3F510561
:1036E00078F00C94171A0C94621A5F3FE4F3983E3A
:1036F000D4F3869577956795B795F7959F5FC9F74A
:10370000880F911D9695879597F90895E1E0660FCA
:10371000771F881FBB1F621773078407BA0720F043
:10372000621B730B840BBA0BEE1F88F7E0950895AC
:103730000E949F1B6894B1110C94621A08950E9414
:10374000471A88F09F5798F0B92F9927B751B0F0D2
:10375000E1F0660F771F881F991F1AF0BA95C9F715
:1037600014C0B13091F00E94611AB1E008950C9438
:10377000611A672F782F8827B85F39F0B93FCCF3EB
:10378000869577956795B395D9F73EF49095809592
:10379000709561957F4F8F4F9F4F0895DB018F93F9
:1037A0009F930E94681ABF91AF91A29F800D911DB7
:1037B000A39F900DB29F900D11240895EE0FFF1F4F
:1037C0000590F491E02D09940F93083090F0982F14
:1037D000872F762F652F542F432F322F2227085003
:1037E000F4CF220F331F441F551F661F771F881FFA
:1037F000991F0A95B2F70F91089597FB10F8169448
:1038000000080F93083098F00850232F342F452FCD
:10381000562F672F782F892F902DF4CF05949795E9
:1038200087957795679557954795379527950A9585
:10383000AAF70F910895CF93DF938230910510F48A
:1038400082E090E0E091F603F091F70320E030E0B1
:10385000C0E0D0E0309711F14081518148175907FD
:10386000C0F04817590761F482819381209719F0BD
:103870009B838A832BC09093F7038093F60326C023
:103880002115310519F04217530718F49A01BE01AA
:10389000DF01EF010280F381E02DDCCF211531053E
:1038A00009F1281B390B2430310590F412968D91C3
:1038B0009C9113976115710521F0FB01938382831D
:1038C00004C09093F7038093F603FD01329644C041
:1038D000FD01E20FF31F81939193225031092D9343
:1038E0003C933AC02091F4033091F503232B41F42B
:1038F00020911501309116013093F5032093F403C4
:1039000020911301309114012115310541F42DB797
:103910003EB74091170150911801241B350BE091DF
:10392000F403F091F503E217F307A0F42E1B3F0B0D
:103930002817390778F0AC014E5F5F4F2417350721
:1039400048F04E0F5F1F5093F5034093F4038193AB
:10395000919302C0E0E0F0E0CF01DF91CF910895B4
:103960000F931F93CF93DF93009709F48CC0FC0152
:103970003297138212820091F6031091F70301151A
:10398000110581F420813181820F931F2091F4036E
:103990003091F5032817390779F5F093F503E09393
:1039A000F40371C0D80140E050E0AE17BF0750F4F7
:1039B00012962D913C911397AD012115310509F116
:1039C000D901F3CF9D01DA013383228360817181B4
:1039D000860F971F8217930769F4EC0128813981BC
:1039E000260F371F2E5F3F4F318320838A819B81B3
:1039F00093838283452B29F4F093F703E093F60336
:103A000042C01396FC93EE931297ED0149915991A0
:103A10009E01240F351FE217F30771F48081918115
:103A2000840F951F029611969C938E9382819381A9
:103A300013969C938E931297E0E0F0E0D8011296D3
:103A40008D919C911397009719F0F8018C01F6CF96
:103A50008D919C9198012E5F3F4F820F931F209173
:103A6000F4033091F5032817390769F4309729F4E6
:103A70001092F7031092F60302C013821282109381
:103A8000F5030093F403DF91CF911F910F910895F7
:103A9000A0E0B0E0EEE4FDE10C94771AEC010097B1
:103AA00021F4CB010E941B1CB8C0FC01E60FF71FDC
:103AB0009C0122503109E217F30708F4ACC0D90188
:103AC0000D911C91119706171707B0F005301105DD
:103AD00008F49FC0C80104978617970708F499C097
:103AE00002501109061B170B019311936D937C93E0
:103AF000CF010E94B01C8DC05B01A01AB10A4C011D
:103B0000800E911EA091F603B091F70340E050E0C3
:103B1000E12CF12C109709F44AC0A815B905D1F58C
:103B20006D907C901197630182E0C80ED11CCA147D
:103B3000DB0480F1A3014A195B096A0182E0C80E27
:103B4000D11C1296BC9012971396AC91B5E0CB168F
:103B5000D10440F0B282A38351834083D9016D9395
:103B60007C930AC00E5F1F4FC301800F911FF901A4
:103B700091838083EB2DFA2FE114F10431F0D7010A
:103B80001396FC93EE93129744C0F093F703E093DF
:103B9000F6033FC08D919C9111974817590708F47F
:103BA000AC017D0112960D90BC91A02DB3CF8091F8
:103BB000F4039091F50388159905E1F4461757072A
:103BC000C8F48091130190911401009741F48DB7CE
:103BD0009EB74091170150911801841B950BE8176F
:103BE000F907C8F4F093F503E093F403F901718346
:103BF00060830FC0CB010E941B1C7C01009759F011
:103C0000A801BE010E94171ECE010E94B01CC70170
:103C100004C0CE0102C080E090E0CDB7DEB7EEE098
:103C20000C94931A81E090E0F8940C94271EFB0109
:103C3000DC0102C001900D9241505040D8F7089528
:103C4000FB01DC0101900D920020E1F70895F8944A
:023C5000FFCFA4
:103C520000C18081000000FFFFFFFF00E1000000C3
:103C62000000000000F8038000000000004403C7C9
:103C72000387036B0300000000A2020E09C302B80F
:103C820002C8027904550400000000B20B31021789
:103C92000416047831303000783130312E0078311A
:103CA20030322E00783130330078313034007831C0
:103CB20030350078313036007831303700783130A5
:103CC2003800783130390078313130004D2B0078AE
:103CD200313131004D2D00783131320078313133BC
:103CE20000783131340078313135007831313600A5
:103CF2007831313700783131380078313139007814
:103D0200313230007831323100783132320078315C
:103D120032330078313234007831323500687474CD
:103D220070733A2F2F7777772E66616365626F6FB4
:103D32006B2E636F6D2F3F736B3D685F636872001C
:103D4200783132360068747470733A2F2F6D61695E
:103D52006C2E676F6F676C652E636F6D2F6D616977
:103D62006C2F752F302F23696E626F780078313295
:103D7200370068747470733A2F2F7777772E796FC4
:103D820075747562652E636F6D2F0078313238005D
:103D920068747470733A2F2F7777772E77702E703E
:0C3DA2006C2F0078313239000D0A00004F
:00000001FF
